{
    "_format": "hh-sol-artifact-1",
    "contractName": "PeerMarketRCBCSKPool",
    "sourceName": "contracts/PeerMarketRCBCSKPool.sol",
    "abi": [
        {
            "inputs": [],
            "stateMutability": "nonpayable",
            "type": "constructor"
        },
        {
            "inputs": [
                {
                    "internalType": "address",
                    "name": "",
                    "type": "address"
                },
                {
                    "internalType": "bytes32",
                    "name": "",
                    "type": "bytes32"
                }
            ],
            "name": "accountBalance",
            "outputs": [
                {
                    "internalType": "uint256",
                    "name": "",
                    "type": "uint256"
                }
            ],
            "stateMutability": "view",
            "type": "function"
        },
        {
            "inputs": [
                {
                    "internalType": "bytes32",
                    "name": "tokenSymbol",
                    "type": "bytes32"
                },
                {
                    "internalType": "address",
                    "name": "tokenAddress",
                    "type": "address"
                }
            ],
            "name": "addAllowedToken",
            "outputs": [],
            "stateMutability": "nonpayable",
            "type": "function"
        },
        {
            "inputs": [
                {
                    "internalType": "bytes32",
                    "name": "",
                    "type": "bytes32"
                }
            ],
            "name": "allowedTokens",
            "outputs": [
                {
                    "internalType": "address",
                    "name": "",
                    "type": "address"
                }
            ],
            "stateMutability": "view",
            "type": "function"
        },
        {
            "inputs": [
                {
                    "internalType": "bytes32",
                    "name": "tokenSymbol",
                    "type": "bytes32"
                },
                {
                    "internalType": "bytes32",
                    "name": "symbol",
                    "type": "bytes32"
                },
                {
                    "internalType": "uint256",
                    "name": "amount",
                    "type": "uint256"
                }
            ],
            "name": "depositTokens",
            "outputs": [],
            "stateMutability": "nonpayable",
            "type": "function"
        },
        {
            "inputs": [],
            "name": "lotteryRunning",
            "outputs": [
                {
                    "internalType": "bool",
                    "name": "",
                    "type": "bool"
                }
            ],
            "stateMutability": "view",
            "type": "function"
        },
        {
            "inputs": [
                {
                    "internalType": "bytes32",
                    "name": "",
                    "type": "bytes32"
                }
            ],
            "name": "poolPlayers",
            "outputs": [
                {
                    "internalType": "uint256",
                    "name": "",
                    "type": "uint256"
                }
            ],
            "stateMutability": "view",
            "type": "function"
        },
        {
            "inputs": [
                {
                    "internalType": "bytes32",
                    "name": "",
                    "type": "bytes32"
                }
            ],
            "name": "poolValue",
            "outputs": [
                {
                    "internalType": "uint256",
                    "name": "",
                    "type": "uint256"
                }
            ],
            "stateMutability": "view",
            "type": "function"
        },
        {
            "inputs": [
                {
                    "internalType": "bytes32",
                    "name": "winningSymbol",
                    "type": "bytes32"
                }
            ],
            "name": "victoryCalculations",
            "outputs": [],
            "stateMutability": "nonpayable",
            "type": "function"
        },
        {
            "inputs": [],
            "name": "winSymbol",
            "outputs": [
                {
                    "internalType": "bytes32",
                    "name": "",
                    "type": "bytes32"
                }
            ],
            "stateMutability": "view",
            "type": "function"
        },
        {
            "inputs": [],
            "name": "winningPercent",
            "outputs": [
                {
                    "internalType": "uint256",
                    "name": "",
                    "type": "uint256"
                }
            ],
            "stateMutability": "view",
            "type": "function"
        },
        {
            "inputs": [
                {
                    "internalType": "bytes32",
                    "name": "tokenSymbol",
                    "type": "bytes32"
                }
            ],
            "name": "withdrawTokens",
            "outputs": [],
            "stateMutability": "nonpayable",
            "type": "function"
        }
    ],
    "bytecode": "0x608060405234801561001057600080fd5b5033600660016101000a81548173ffffffffffffffffffffffffffffffffffffffff021916908373ffffffffffffffffffffffffffffffffffffffff1602179055506001600660006101000a81548160ff02191690831515021790555061134d8061007c6000396000f3fe608060405234801561001057600080fd5b50600436106100a95760003560e01c80636efee638116100715780636efee6381461015257806372f8949314610182578063a2687830146101b2578063c672ff94146101d0578063f36de64714610200578063fb8d1e331461021c576100a9565b80630a7d4d95146100ae57806311b7dc9b146100de57806317300a14146100fc57806349cda18f1461011a578063566d358014610136575b600080fd5b6100c860048036038101906100c39190610bac565b610238565b6040516100d59190610bf2565b60405180910390f35b6100e6610250565b6040516100f39190610bf2565b60405180910390f35b610104610256565b6040516101119190610c28565b60405180910390f35b610134600480360381019061012f9190610bac565b610269565b005b610150600480360381019061014b9190610ca1565b610542565b005b61016c60048036038101906101679190610bac565b610627565b6040516101799190610bf2565b60405180910390f35b61019c60048036038101906101979190610bac565b61063f565b6040516101a99190610cf0565b60405180910390f35b6101ba610672565b6040516101c79190610d1a565b60405180910390f35b6101ea60048036038101906101e59190610d35565b610678565b6040516101f79190610bf2565b60405180910390f35b61021a60048036038101906102159190610da1565b61069d565b005b61023660048036038101906102319190610bac565b6109be565b005b60036020528060005260406000206000915090505481565b60045481565b600660009054906101000a900460ff1681565b7f504d43000000000000000000000000000000000000000000000000000000000081146102cb576040517f08c379a00000000000000000000000000000000000000000000000000000000081526004016102c290610e51565b60405180910390fd5b60001515600660009054906101000a900460ff16151514610321576040517f08c379a000000000000000000000000000000000000000000000000000000000815260040161031890610ee3565b60405180910390fd5b6000600160003373ffffffffffffffffffffffffffffffffffffffff1673ffffffffffffffffffffffffffffffffffffffff1681526020019081526020016000206000600554815260200190815260200160002054116103b6576040517f08c379a00000000000000000000000000000000000000000000000000000000081526004016103ad90610f4f565b60405180910390fd5b60006064600454600160003373ffffffffffffffffffffffffffffffffffffffff1673ffffffffffffffffffffffffffffffffffffffff168152602001908152602001600020600060055481526020019081526020016000205461041a9190610f9e565b6104249190611027565b90506000600160003373ffffffffffffffffffffffffffffffffffffffff1673ffffffffffffffffffffffffffffffffffffffff168152602001908152602001600020600060055481526020019081526020016000208190555060008083815260200190815260200160002060009054906101000a900473ffffffffffffffffffffffffffffffffffffffff1673ffffffffffffffffffffffffffffffffffffffff1663a9059cbb33836040518363ffffffff1660e01b81526004016104eb929190611058565b602060405180830381600087803b15801561050557600080fd5b505af1158015610519573d6000803e3d6000fd5b505050506040513d601f19601f8201168201806040525081019061053d91906110ad565b505050565b600660019054906101000a900473ffffffffffffffffffffffffffffffffffffffff1673ffffffffffffffffffffffffffffffffffffffff163373ffffffffffffffffffffffffffffffffffffffff16146105d2576040517f08c379a00000000000000000000000000000000000000000000000000000000081526004016105c990611126565b60405180910390fd5b8060008084815260200190815260200160002060006101000a81548173ffffffffffffffffffffffffffffffffffffffff021916908373ffffffffffffffffffffffffffffffffffffffff1602179055505050565b60026020528060005260406000206000915090505481565b60006020528060005260406000206000915054906101000a900473ffffffffffffffffffffffffffffffffffffffff1681565b60055481565b6001602052816000526040600020602052806000526040600020600091509150505481565b7f504d43000000000000000000000000000000000000000000000000000000000083146106ff576040517f08c379a00000000000000000000000000000000000000000000000000000000081526004016106f690610e51565b60405180910390fd5b60011515600660009054906101000a900460ff16151514610755576040517f08c379a000000000000000000000000000000000000000000000000000000000815260040161074c90611192565b60405180910390fd5b7f43534b00000000000000000000000000000000000000000000000000000000008214806107a257507f524342000000000000000000000000000000000000000000000000000000000082145b6107e1576040517f08c379a00000000000000000000000000000000000000000000000000000000081526004016107d8906111fe565b60405180910390fd5b6000600160003373ffffffffffffffffffffffffffffffffffffffff1673ffffffffffffffffffffffffffffffffffffffff168152602001908152602001600020600084815260200190815260200160002054141561086657600160036000848152602001908152602001600020600082825461085e919061121e565b925050819055505b80600260008481526020019081526020016000206000828254610889919061121e565b9250508190555080600160003373ffffffffffffffffffffffffffffffffffffffff1673ffffffffffffffffffffffffffffffffffffffff168152602001908152602001600020600084815260200190815260200160002060008282546108f0919061121e565b9250508190555060008084815260200190815260200160002060009054906101000a900473ffffffffffffffffffffffffffffffffffffffff1673ffffffffffffffffffffffffffffffffffffffff166323b872dd3330846040518463ffffffff1660e01b815260040161096693929190611274565b602060405180830381600087803b15801561098057600080fd5b505af1158015610994573d6000803e3d6000fd5b505050506040513d601f19601f820116820180604052508101906109b891906110ad565b50505050565b600660019054906101000a900473ffffffffffffffffffffffffffffffffffffffff1673ffffffffffffffffffffffffffffffffffffffff163373ffffffffffffffffffffffffffffffffffffffff1614610a4e576040517f08c379a0000000000000000000000000000000000000000000000000000000008152600401610a45906112f7565b60405180910390fd5b60011515600660009054906101000a900460ff16151514610aa4576040517f08c379a0000000000000000000000000000000000000000000000000000000008152600401610a9b90611192565b60405180910390fd5b6000600260007f5243420000000000000000000000000000000000000000000000000000000000815260200190815260200160002054600260007f43534b0000000000000000000000000000000000000000000000000000000000815260200190815260200160002054610b18919061121e565b90506002600083815260200190815260200160002054606482610b3b9190610f9e565b610b459190611027565b600481905550816005819055506000600660006101000a81548160ff0219169083151502179055505050565b600080fd5b6000819050919050565b610b8981610b76565b8114610b9457600080fd5b50565b600081359050610ba681610b80565b92915050565b600060208284031215610bc257610bc1610b71565b5b6000610bd084828501610b97565b91505092915050565b6000819050919050565b610bec81610bd9565b82525050565b6000602082019050610c076000830184610be3565b92915050565b60008115159050919050565b610c2281610c0d565b82525050565b6000602082019050610c3d6000830184610c19565b92915050565b600073ffffffffffffffffffffffffffffffffffffffff82169050919050565b6000610c6e82610c43565b9050919050565b610c7e81610c63565b8114610c8957600080fd5b50565b600081359050610c9b81610c75565b92915050565b60008060408385031215610cb857610cb7610b71565b5b6000610cc685828601610b97565b9250506020610cd785828601610c8c565b9150509250929050565b610cea81610c63565b82525050565b6000602082019050610d056000830184610ce1565b92915050565b610d1481610b76565b82525050565b6000602082019050610d2f6000830184610d0b565b92915050565b60008060408385031215610d4c57610d4b610b71565b5b6000610d5a85828601610c8c565b9250506020610d6b85828601610b97565b9150509250929050565b610d7e81610bd9565b8114610d8957600080fd5b50565b600081359050610d9b81610d75565b92915050565b600080600060608486031215610dba57610db9610b71565b5b6000610dc886828701610b97565b9350506020610dd986828701610b97565b9250506040610dea86828701610d8c565b9150509250925092565b600082825260208201905092915050565b7f4f6e6c7920504d4320746f6b656e732061726520616c6c6f7765640000000000600082015250565b6000610e3b601b83610df4565b9150610e4682610e05565b602082019050919050565b60006020820190508181036000830152610e6a81610e2e565b9050919050565b7f536f7272792c20746865206c6f7474657279206973207374696c6c2072756e6e60008201527f696e670000000000000000000000000000000000000000000000000000000000602082015250565b6000610ecd602383610df4565b9150610ed882610e71565b604082019050919050565b60006020820190508181036000830152610efc81610ec0565b9050919050565b7f4e6f2066756e647320666f756e6420696e2077696e6e696e672073796d626f6c600082015250565b6000610f39602083610df4565b9150610f4482610f03565b602082019050919050565b60006020820190508181036000830152610f6881610f2c565b9050919050565b7f4e487b7100000000000000000000000000000000000000000000000000000000600052601160045260246000fd5b6000610fa982610bd9565b9150610fb483610bd9565b9250817fffffffffffffffffffffffffffffffffffffffffffffffffffffffffffffffff0483118215151615610fed57610fec610f6f565b5b828202905092915050565b7f4e487b7100000000000000000000000000000000000000000000000000000000600052601260045260246000fd5b600061103282610bd9565b915061103d83610bd9565b92508261104d5761104c610ff8565b5b828204905092915050565b600060408201905061106d6000830185610ce1565b61107a6020830184610be3565b9392505050565b61108a81610c0d565b811461109557600080fd5b50565b6000815190506110a781611081565b92915050565b6000602082840312156110c3576110c2610b71565b5b60006110d184828501611098565b91505092915050565b7f546869732066756e6374696f6e206973206e6f74207075626c69630000000000600082015250565b6000611110601b83610df4565b915061111b826110da565b602082019050919050565b6000602082019050818103600083015261113f81611103565b9050919050565b7f536f7272792c20746865206c6f7474657279206973206f766572000000000000600082015250565b600061117c601a83610df4565b915061118782611146565b602082019050919050565b600060208201905081810360008301526111ab8161116f565b9050919050565b7f506f6f6c2073796d626f6c206e6f7420737570706f7274656400000000000000600082015250565b60006111e8601983610df4565b91506111f3826111b2565b602082019050919050565b60006020820190508181036000830152611217816111db565b9050919050565b600061122982610bd9565b915061123483610bd9565b9250827fffffffffffffffffffffffffffffffffffffffffffffffffffffffffffffffff0382111561126957611268610f6f565b5b828201905092915050565b60006060820190506112896000830186610ce1565b6112966020830185610ce1565b6112a36040830184610be3565b949350505050565b7f4f6e6c79206f776e65722063616e206465636964652077686f2077696e730000600082015250565b60006112e1601e83610df4565b91506112ec826112ab565b602082019050919050565b60006020820190508181036000830152611310816112d4565b905091905056fea2646970667358221220c426ca9d22660d7c5515c69011c8ab3ef5ac895c2f73db1cbb244b60cf9324bc64736f6c63430008090033",
    "linkReferences": {},
    "deployedLinkReferences": {}
}